{
  "contractName": "SpaceLand",
  "abi": [
    {
      "constant": true,
      "inputs": [
        {
          "name": "interfaceId",
          "type": "bytes4"
        }
      ],
      "name": "supportsInterface",
      "outputs": [
        {
          "name": "",
          "type": "bool"
        }
      ],
      "payable": false,
      "stateMutability": "view",
      "type": "function"
    },
    {
      "constant": true,
      "inputs": [
        {
          "name": "tokenId",
          "type": "uint256"
        }
      ],
      "name": "getApproved",
      "outputs": [
        {
          "name": "",
          "type": "address"
        }
      ],
      "payable": false,
      "stateMutability": "view",
      "type": "function"
    },
    {
      "constant": false,
      "inputs": [
        {
          "name": "to",
          "type": "address"
        },
        {
          "name": "tokenId",
          "type": "uint256"
        }
      ],
      "name": "approve",
      "outputs": [],
      "payable": false,
      "stateMutability": "nonpayable",
      "type": "function"
    },
    {
      "constant": true,
      "inputs": [],
      "name": "totalSupply",
      "outputs": [
        {
          "name": "",
          "type": "uint256"
        }
      ],
      "payable": false,
      "stateMutability": "view",
      "type": "function"
    },
    {
      "constant": false,
      "inputs": [
        {
          "name": "from",
          "type": "address"
        },
        {
          "name": "to",
          "type": "address"
        },
        {
          "name": "tokenId",
          "type": "uint256"
        }
      ],
      "name": "transferFrom",
      "outputs": [],
      "payable": false,
      "stateMutability": "nonpayable",
      "type": "function"
    },
    {
      "constant": true,
      "inputs": [
        {
          "name": "owner",
          "type": "address"
        },
        {
          "name": "index",
          "type": "uint256"
        }
      ],
      "name": "tokenOfOwnerByIndex",
      "outputs": [
        {
          "name": "",
          "type": "uint256"
        }
      ],
      "payable": false,
      "stateMutability": "view",
      "type": "function"
    },
    {
      "constant": false,
      "inputs": [
        {
          "name": "from",
          "type": "address"
        },
        {
          "name": "to",
          "type": "address"
        },
        {
          "name": "tokenId",
          "type": "uint256"
        }
      ],
      "name": "safeTransferFrom",
      "outputs": [],
      "payable": false,
      "stateMutability": "nonpayable",
      "type": "function"
    },
    {
      "constant": true,
      "inputs": [
        {
          "name": "index",
          "type": "uint256"
        }
      ],
      "name": "tokenByIndex",
      "outputs": [
        {
          "name": "",
          "type": "uint256"
        }
      ],
      "payable": false,
      "stateMutability": "view",
      "type": "function"
    },
    {
      "constant": true,
      "inputs": [
        {
          "name": "tokenId",
          "type": "uint256"
        }
      ],
      "name": "ownerOf",
      "outputs": [
        {
          "name": "",
          "type": "address"
        }
      ],
      "payable": false,
      "stateMutability": "view",
      "type": "function"
    },
    {
      "constant": true,
      "inputs": [
        {
          "name": "owner",
          "type": "address"
        }
      ],
      "name": "balanceOf",
      "outputs": [
        {
          "name": "",
          "type": "uint256"
        }
      ],
      "payable": false,
      "stateMutability": "view",
      "type": "function"
    },
    {
      "constant": true,
      "inputs": [],
      "name": "owner",
      "outputs": [
        {
          "name": "",
          "type": "address"
        }
      ],
      "payable": false,
      "stateMutability": "view",
      "type": "function"
    },
    {
      "constant": false,
      "inputs": [
        {
          "name": "to",
          "type": "address"
        },
        {
          "name": "approved",
          "type": "bool"
        }
      ],
      "name": "setApprovalForAll",
      "outputs": [],
      "payable": false,
      "stateMutability": "nonpayable",
      "type": "function"
    },
    {
      "constant": false,
      "inputs": [
        {
          "name": "from",
          "type": "address"
        },
        {
          "name": "to",
          "type": "address"
        },
        {
          "name": "tokenId",
          "type": "uint256"
        },
        {
          "name": "_data",
          "type": "bytes"
        }
      ],
      "name": "safeTransferFrom",
      "outputs": [],
      "payable": false,
      "stateMutability": "nonpayable",
      "type": "function"
    },
    {
      "constant": true,
      "inputs": [
        {
          "name": "owner",
          "type": "address"
        },
        {
          "name": "operator",
          "type": "address"
        }
      ],
      "name": "isApprovedForAll",
      "outputs": [
        {
          "name": "",
          "type": "bool"
        }
      ],
      "payable": false,
      "stateMutability": "view",
      "type": "function"
    },
    {
      "inputs": [
        {
          "name": "rows",
          "type": "uint256"
        },
        {
          "name": "columns",
          "type": "uint256"
        },
        {
          "name": "landHeight",
          "type": "uint256"
        },
        {
          "name": "landWidth",
          "type": "uint256"
        },
        {
          "name": "landPrice",
          "type": "uint256"
        }
      ],
      "payable": false,
      "stateMutability": "nonpayable",
      "type": "constructor"
    },
    {
      "anonymous": false,
      "inputs": [
        {
          "indexed": true,
          "name": "from",
          "type": "address"
        },
        {
          "indexed": true,
          "name": "to",
          "type": "address"
        },
        {
          "indexed": true,
          "name": "tokenId",
          "type": "uint256"
        }
      ],
      "name": "Transfer",
      "type": "event"
    },
    {
      "anonymous": false,
      "inputs": [
        {
          "indexed": true,
          "name": "owner",
          "type": "address"
        },
        {
          "indexed": true,
          "name": "approved",
          "type": "address"
        },
        {
          "indexed": true,
          "name": "tokenId",
          "type": "uint256"
        }
      ],
      "name": "Approval",
      "type": "event"
    },
    {
      "anonymous": false,
      "inputs": [
        {
          "indexed": true,
          "name": "owner",
          "type": "address"
        },
        {
          "indexed": true,
          "name": "operator",
          "type": "address"
        },
        {
          "indexed": false,
          "name": "approved",
          "type": "bool"
        }
      ],
      "name": "ApprovalForAll",
      "type": "event"
    },
    {
      "constant": false,
      "inputs": [
        {
          "name": "landId",
          "type": "uint256"
        }
      ],
      "name": "buy",
      "outputs": [],
      "payable": true,
      "stateMutability": "payable",
      "type": "function"
    },
    {
      "constant": false,
      "inputs": [
        {
          "name": "landId",
          "type": "uint256"
        },
        {
          "name": "name",
          "type": "string"
        },
        {
          "name": "desc",
          "type": "string"
        }
      ],
      "name": "setDetails",
      "outputs": [
        {
          "name": "",
          "type": "uint256"
        }
      ],
      "payable": false,
      "stateMutability": "nonpayable",
      "type": "function"
    },
    {
      "constant": true,
      "inputs": [
        {
          "name": "landId",
          "type": "uint256"
        }
      ],
      "name": "getDetails",
      "outputs": [
        {
          "name": "",
          "type": "uint256"
        },
        {
          "name": "",
          "type": "string"
        },
        {
          "name": "",
          "type": "string"
        }
      ],
      "payable": false,
      "stateMutability": "view",
      "type": "function"
    },
    {
      "constant": true,
      "inputs": [],
      "name": "allLands",
      "outputs": [
        {
          "name": "",
          "type": "uint256[]"
        }
      ],
      "payable": false,
      "stateMutability": "view",
      "type": "function"
    },
    {
      "constant": true,
      "inputs": [
        {
          "name": "buyer",
          "type": "address"
        }
      ],
      "name": "landsOf",
      "outputs": [
        {
          "name": "",
          "type": "uint256[]"
        }
      ],
      "payable": false,
      "stateMutability": "view",
      "type": "function"
    },
    {
      "constant": true,
      "inputs": [],
      "name": "maxTotalSupply",
      "outputs": [
        {
          "name": "",
          "type": "uint256"
        }
      ],
      "payable": false,
      "stateMutability": "view",
      "type": "function"
    }
  ],
  "bytecode": "0x60806040523480156200001157600080fd5b5060405160a0806200247183398101806040528101908080519060200190929190805190602001909291908051906020019092919080519060200190929190805190602001909291905050506200009a6301ffc9a77c010000000000000000000000000000000000000000000000000000000002620001bf640100000000026401000000009004565b620000d76380ac58cd7c010000000000000000000000000000000000000000000000000000000002620001bf640100000000026401000000009004565b6200011463780e9d637c010000000000000000000000000000000000000000000000000000000002620001bf640100000000026401000000009004565b33600960006101000a81548173ffffffffffffffffffffffffffffffffffffffff021916908373ffffffffffffffffffffffffffffffffffffffff16021790555060a06040519081016040528086815260200185815260200184815260200183815260200182815250600a600082015181600001556020820151816001015560408201518160020155606082015181600301556080820151816004015590505050505050506200027d565b63ffffffff7c010000000000000000000000000000000000000000000000000000000002817bffffffffffffffffffffffffffffffffffffffffffffffffffffffff1916141515156200021157600080fd5b6001600080837bffffffffffffffffffffffffffffffffffffffffffffffffffffffff19167bffffffffffffffffffffffffffffffffffffffffffffffffffffffff1916815260200190815260200160002060006101000a81548160ff02191690831515021790555050565b6121e4806200028d6000396000f300608060405260043610610112576000357c0100000000000000000000000000000000000000000000000000000000900463ffffffff16806301ffc9a714610117578063081812fc1461017b578063095ea7b3146101e857806318160ddd1461023557806323b872dd146102605780632ab4d052146102cd5780632f745c59146102f857806342842e0e146103595780634f6ccce7146103c65780636352211e1461040757806370a08231146104745780637d6ff281146104cb5780638da5cb5b146105985780639805d7d2146105ef578063a22cb46514610687578063b88d4fde146106d6578063b93a89f714610789578063bfa9b554146108a2578063d96a094a1461090e578063e985e9c51461092e575b600080fd5b34801561012357600080fd5b5061016160048036038101908080357bffffffffffffffffffffffffffffffffffffffffffffffffffffffff191690602001909291905050506109a9565b604051808215151515815260200191505060405180910390f35b34801561018757600080fd5b506101a660048036038101908080359060200190929190505050610a10565b604051808273ffffffffffffffffffffffffffffffffffffffff1673ffffffffffffffffffffffffffffffffffffffff16815260200191505060405180910390f35b3480156101f457600080fd5b50610233600480360381019080803573ffffffffffffffffffffffffffffffffffffffff16906020019092919080359060200190929190505050610a61565b005b34801561024157600080fd5b5061024a610ba6565b6040518082815260200191505060405180910390f35b34801561026c57600080fd5b506102cb600480360381019080803573ffffffffffffffffffffffffffffffffffffffff169060200190929190803573ffffffffffffffffffffffffffffffffffffffff16906020019092919080359060200190929190505050610bb3565b005b3480156102d957600080fd5b506102e2610c82565b6040518082815260200191505060405180910390f35b34801561030457600080fd5b50610343600480360381019080803573ffffffffffffffffffffffffffffffffffffffff16906020019092919080359060200190929190505050610c96565b6040518082815260200191505060405180910390f35b34801561036557600080fd5b506103c4600480360381019080803573ffffffffffffffffffffffffffffffffffffffff169060200190929190803573ffffffffffffffffffffffffffffffffffffffff16906020019092919080359060200190929190505050610d0d565b005b3480156103d257600080fd5b506103f160048036038101908080359060200190929190505050610d2e565b6040518082815260200191505060405180910390f35b34801561041357600080fd5b5061043260048036038101908080359060200190929190505050610d66565b604051808273ffffffffffffffffffffffffffffffffffffffff1673ffffffffffffffffffffffffffffffffffffffff16815260200191505060405180910390f35b34801561048057600080fd5b506104b5600480360381019080803573ffffffffffffffffffffffffffffffffffffffff169060200190929190505050610de4565b6040518082815260200191505060405180910390f35b3480156104d757600080fd5b5061058260048036038101908080359060200190929190803590602001908201803590602001908080601f0160208091040260200160405190810160405280939291908181526020018383808284378201915050505050509192919290803590602001908201803590602001908080601f0160208091040260200160405190810160405280939291908181526020018383808284378201915050505050509192919290505050610e68565b6040518082815260200191505060405180910390f35b3480156105a457600080fd5b506105ad610f8f565b604051808273ffffffffffffffffffffffffffffffffffffffff1673ffffffffffffffffffffffffffffffffffffffff16815260200191505060405180910390f35b3480156105fb57600080fd5b50610630600480360381019080803573ffffffffffffffffffffffffffffffffffffffff169060200190929190505050610fb5565b6040518080602001828103825283818151815260200191508051906020019060200280838360005b83811015610673578082015181840152602081019050610658565b505050509050019250505060405180910390f35b34801561069357600080fd5b506106d4600480360381019080803573ffffffffffffffffffffffffffffffffffffffff169060200190929190803515159060200190929190505050611003565b005b3480156106e257600080fd5b50610787600480360381019080803573ffffffffffffffffffffffffffffffffffffffff169060200190929190803573ffffffffffffffffffffffffffffffffffffffff16906020019092919080359060200190929190803590602001908201803590602001908080601f016020809104026020016040519081016040528093929190818152602001838380828437820191505050505050919291929050505061113f565b005b34801561079557600080fd5b506107b460048036038101908080359060200190929190505050611167565b604051808481526020018060200180602001838103835285818151815260200191508051906020019080838360005b838110156107fe5780820151818401526020810190506107e3565b50505050905090810190601f16801561082b5780820380516001836020036101000a031916815260200191505b50838103825284818151815260200191508051906020019080838360005b83811015610864578082015181840152602081019050610849565b50505050905090810190601f1680156108915780820380516001836020036101000a031916815260200191505b509550505050505060405180910390f35b3480156108ae57600080fd5b506108b76112d2565b6040518080602001828103825283818151815260200191508051906020019060200280838360005b838110156108fa5780820151818401526020810190506108df565b505050509050019250505060405180910390f35b61092c600480360381019080803590602001909291905050506112e1565b005b34801561093a57600080fd5b5061098f600480360381019080803573ffffffffffffffffffffffffffffffffffffffff169060200190929190803573ffffffffffffffffffffffffffffffffffffffff169060200190929190505050611450565b604051808215151515815260200191505060405180910390f35b6000806000837bffffffffffffffffffffffffffffffffffffffffffffffffffffffff19167bffffffffffffffffffffffffffffffffffffffffffffffffffffffff1916815260200190815260200160002060009054906101000a900460ff169050919050565b6000610a1b826114e4565b1515610a2657600080fd5b6002600083815260200190815260200160002060009054906101000a900473ffffffffffffffffffffffffffffffffffffffff169050919050565b6000610a6c82610d66565b90508073ffffffffffffffffffffffffffffffffffffffff168373ffffffffffffffffffffffffffffffffffffffff1614151515610aa957600080fd5b8073ffffffffffffffffffffffffffffffffffffffff163373ffffffffffffffffffffffffffffffffffffffff161480610ae95750610ae88133611450565b5b1515610af457600080fd5b826002600084815260200190815260200160002060006101000a81548173ffffffffffffffffffffffffffffffffffffffff021916908373ffffffffffffffffffffffffffffffffffffffff160217905550818373ffffffffffffffffffffffffffffffffffffffff168273ffffffffffffffffffffffffffffffffffffffff167f8c5be1e5ebec7d5bd14f71427d1e84f3dd0314c0f7b2291e5b200ac8c7c3b92560405160405180910390a4505050565b6000600780549050905090565b610bbd3382611556565b1515610bc857600080fd5b600073ffffffffffffffffffffffffffffffffffffffff168273ffffffffffffffffffffffffffffffffffffffff1614151515610c0457600080fd5b610c0e83826115eb565b610c1883826116ee565b610c2282826118aa565b808273ffffffffffffffffffffffffffffffffffffffff168473ffffffffffffffffffffffffffffffffffffffff167fddf252ad1be2c89b69c2b068fc378daa952ba7f163c4a11628f55a4df523b3ef60405160405180910390a4505050565b6000600a60010154600a6000015402905090565b6000610ca183610de4565b82101515610cae57600080fd5b600560008473ffffffffffffffffffffffffffffffffffffffff1673ffffffffffffffffffffffffffffffffffffffff16815260200190815260200160002082815481101515610cfa57fe5b9060005260206000200154905092915050565b610d29838383602060405190810160405280600081525061113f565b505050565b6000610d38610ba6565b82101515610d4557600080fd5b600782815481101515610d5457fe5b90600052602060002001549050919050565b6000806001600084815260200190815260200160002060009054906101000a900473ffffffffffffffffffffffffffffffffffffffff169050600073ffffffffffffffffffffffffffffffffffffffff168173ffffffffffffffffffffffffffffffffffffffff1614151515610ddb57600080fd5b80915050919050565b60008073ffffffffffffffffffffffffffffffffffffffff168273ffffffffffffffffffffffffffffffffffffffff1614151515610e2157600080fd5b600360008373ffffffffffffffffffffffffffffffffffffffff1673ffffffffffffffffffffffffffffffffffffffff168152602001908152602001600020549050919050565b6000803373ffffffffffffffffffffffffffffffffffffffff16610e8b86610d66565b73ffffffffffffffffffffffffffffffffffffffff16141515610f3c576040517f08c379a00000000000000000000000000000000000000000000000000000000081526004018080602001828103825260278152602001807f5b6c616e644964206973206e6f74206f776e6564206279206d6573736167652081526020017f73656e6465725d0000000000000000000000000000000000000000000000000081525060400191505060405180910390fd5b600f6000868152602001908152602001600020905083816000019080519060200190610f699291906120e7565b5082816001019080519060200190610f829291906120e7565b5060019150509392505050565b600960009054906101000a900473ffffffffffffffffffffffffffffffffffffffff1681565b6060600073ffffffffffffffffffffffffffffffffffffffff168273ffffffffffffffffffffffffffffffffffffffff1614151515610ff357600080fd5b610ffc82611981565b9050919050565b3373ffffffffffffffffffffffffffffffffffffffff168273ffffffffffffffffffffffffffffffffffffffff161415151561103e57600080fd5b80600460003373ffffffffffffffffffffffffffffffffffffffff1673ffffffffffffffffffffffffffffffffffffffff16815260200190815260200160002060008473ffffffffffffffffffffffffffffffffffffffff1673ffffffffffffffffffffffffffffffffffffffff16815260200190815260200160002060006101000a81548160ff0219169083151502179055508173ffffffffffffffffffffffffffffffffffffffff163373ffffffffffffffffffffffffffffffffffffffff167f17307eab39ab6107e8899845ad3d59bd9653f200f220920489ca2b5937696c3183604051808215151515815260200191505060405180910390a35050565b61114a848484610bb3565b61115684848484611a54565b151561116157600080fd5b50505050565b60006060806000600f60008681526020019081526020016000209050848160000182600101818054600181600116156101000203166002900480601f0160208091040260200160405190810160405280929190818152602001828054600181600116156101000203166002900480156112215780601f106111f657610100808354040283529160200191611221565b820191906000526020600020905b81548152906001019060200180831161120457829003601f168201915b50505050509150808054600181600116156101000203166002900480601f0160208091040260200160405190810160405280929190818152602001828054600181600116156101000203166002900480156112bd5780601f10611292576101008083540402835291602001916112bd565b820191906000526020600020905b8154815290600101906020018083116112a057829003601f168201915b50505050509050935093509350509193909250565b60606112dc611c76565b905090565b60016112fb81600a60040154611cce90919063ffffffff16565b34141515611397576040517f08c379a000000000000000000000000000000000000000000000000000000000815260040180806020018281038252602d8152602001807f5b6d73672e76616c7565206e6f7420657175616c20746f20657870656374656481526020017f206c616e64732070726963655d0000000000000000000000000000000000000081525060400191505060405180910390fd5b81600a60010154600a600001540281101515611441576040517f08c379a00000000000000000000000000000000000000000000000000000000081526004018080602001828103825260288152602001807f5b6c616e6449642067726561746572207468616e206d6178206176616961626c81526020017f6520696e6465785d00000000000000000000000000000000000000000000000081525060400191505060405180910390fd5b61144b3384611d0c565b505050565b6000600460008473ffffffffffffffffffffffffffffffffffffffff1673ffffffffffffffffffffffffffffffffffffffff16815260200190815260200160002060008373ffffffffffffffffffffffffffffffffffffffff1673ffffffffffffffffffffffffffffffffffffffff16815260200190815260200160002060009054906101000a900460ff16905092915050565b6000806001600084815260200190815260200160002060009054906101000a900473ffffffffffffffffffffffffffffffffffffffff169050600073ffffffffffffffffffffffffffffffffffffffff168173ffffffffffffffffffffffffffffffffffffffff161415915050919050565b60008061156283610d66565b90508073ffffffffffffffffffffffffffffffffffffffff168473ffffffffffffffffffffffffffffffffffffffff1614806115d157508373ffffffffffffffffffffffffffffffffffffffff166115b984610a10565b73ffffffffffffffffffffffffffffffffffffffff16145b806115e257506115e18185611450565b5b91505092915050565b8173ffffffffffffffffffffffffffffffffffffffff1661160b82610d66565b73ffffffffffffffffffffffffffffffffffffffff1614151561162d57600080fd5b600073ffffffffffffffffffffffffffffffffffffffff166002600083815260200190815260200160002060009054906101000a900473ffffffffffffffffffffffffffffffffffffffff1673ffffffffffffffffffffffffffffffffffffffff161415156116ea5760006002600083815260200190815260200160002060006101000a81548173ffffffffffffffffffffffffffffffffffffffff021916908373ffffffffffffffffffffffffffffffffffffffff1602179055505b5050565b60008060006116fd8585611d63565b600660008581526020019081526020016000205492506117696001600560008873ffffffffffffffffffffffffffffffffffffffff1673ffffffffffffffffffffffffffffffffffffffff16815260200190815260200160002080549050611e9290919063ffffffff16565b9150600560008673ffffffffffffffffffffffffffffffffffffffff1673ffffffffffffffffffffffffffffffffffffffff168152602001908152602001600020828154811015156117b757fe5b9060005260206000200154905080600560008773ffffffffffffffffffffffffffffffffffffffff1673ffffffffffffffffffffffffffffffffffffffff1681526020019081526020016000208481548110151561181157fe5b9060005260206000200181905550600560008673ffffffffffffffffffffffffffffffffffffffff1673ffffffffffffffffffffffffffffffffffffffff1681526020019081526020016000208054809190600190036118719190612167565b50600060066000868152602001908152602001600020819055508260066000838152602001908152602001600020819055505050505050565b60006118b68383611eb3565b600560008473ffffffffffffffffffffffffffffffffffffffff1673ffffffffffffffffffffffffffffffffffffffff168152602001908152602001600020805490509050600560008473ffffffffffffffffffffffffffffffffffffffff1673ffffffffffffffffffffffffffffffffffffffff168152602001908152602001600020829080600181540180825580915050906001820390600052602060002001600090919290919091505550806006600084815260200190815260200160002081905550505050565b6060600073ffffffffffffffffffffffffffffffffffffffff168273ffffffffffffffffffffffffffffffffffffffff16141515156119bf57600080fd5b600560008373ffffffffffffffffffffffffffffffffffffffff1673ffffffffffffffffffffffffffffffffffffffff168152602001908152602001600020805480602002602001604051908101604052809291908181526020018280548015611a4857602002820191906000526020600020905b815481526020019060010190808311611a34575b50505050509050919050565b600080611a768573ffffffffffffffffffffffffffffffffffffffff1661200d565b1515611a855760019150611c6d565b8473ffffffffffffffffffffffffffffffffffffffff1663150b7a02338887876040518563ffffffff167c0100000000000000000000000000000000000000000000000000000000028152600401808573ffffffffffffffffffffffffffffffffffffffff1673ffffffffffffffffffffffffffffffffffffffff1681526020018473ffffffffffffffffffffffffffffffffffffffff1673ffffffffffffffffffffffffffffffffffffffff16815260200183815260200180602001828103825283818151815260200191508051906020019080838360005b83811015611b7a578082015181840152602081019050611b5f565b50505050905090810190601f168015611ba75780820380516001836020036101000a031916815260200191505b5095505050505050602060405180830381600087803b158015611bc957600080fd5b505af1158015611bdd573d6000803e3d6000fd5b505050506040513d6020811015611bf357600080fd5b8101908080519060200190929190505050905063150b7a027c0100000000000000000000000000000000000000000000000000000000027bffffffffffffffffffffffffffffffffffffffffffffffffffffffff1916817bffffffffffffffffffffffffffffffffffffffffffffffffffffffff19161491505b50949350505050565b60606007805480602002602001604051908101604052809291908181526020018280548015611cc457602002820191906000526020600020905b815481526020019060010190808311611cb0575b5050505050905090565b6000806000841415611ce35760009150611d05565b8284029050828482811515611cf457fe5b04141515611d0157600080fd5b8091505b5092915050565b611d168282612020565b600780549050600860008381526020019081526020016000208190555060078190806001815401808255809150509060018203906000526020600020016000909192909190915055505050565b8173ffffffffffffffffffffffffffffffffffffffff16611d8382610d66565b73ffffffffffffffffffffffffffffffffffffffff16141515611da557600080fd5b611df86001600360008573ffffffffffffffffffffffffffffffffffffffff1673ffffffffffffffffffffffffffffffffffffffff16815260200190815260200160002054611e9290919063ffffffff16565b600360008473ffffffffffffffffffffffffffffffffffffffff1673ffffffffffffffffffffffffffffffffffffffff1681526020019081526020016000208190555060006001600083815260200190815260200160002060006101000a81548173ffffffffffffffffffffffffffffffffffffffff021916908373ffffffffffffffffffffffffffffffffffffffff1602179055505050565b600080838311151515611ea457600080fd5b82840390508091505092915050565b600073ffffffffffffffffffffffffffffffffffffffff166001600083815260200190815260200160002060009054906101000a900473ffffffffffffffffffffffffffffffffffffffff1673ffffffffffffffffffffffffffffffffffffffff16141515611f2157600080fd5b816001600083815260200190815260200160002060006101000a81548173ffffffffffffffffffffffffffffffffffffffff021916908373ffffffffffffffffffffffffffffffffffffffff160217905550611fc66001600360008573ffffffffffffffffffffffffffffffffffffffff1673ffffffffffffffffffffffffffffffffffffffff168152602001908152602001600020546120c690919063ffffffff16565b600360008473ffffffffffffffffffffffffffffffffffffffff1673ffffffffffffffffffffffffffffffffffffffff168152602001908152602001600020819055505050565b600080823b905060008111915050919050565b600073ffffffffffffffffffffffffffffffffffffffff168273ffffffffffffffffffffffffffffffffffffffff161415151561205c57600080fd5b61206682826118aa565b808273ffffffffffffffffffffffffffffffffffffffff16600073ffffffffffffffffffffffffffffffffffffffff167fddf252ad1be2c89b69c2b068fc378daa952ba7f163c4a11628f55a4df523b3ef60405160405180910390a45050565b60008082840190508381101515156120dd57600080fd5b8091505092915050565b828054600181600116156101000203166002900490600052602060002090601f016020900481019282601f1061212857805160ff1916838001178555612156565b82800160010185558215612156579182015b8281111561215557825182559160200191906001019061213a565b5b5090506121639190612193565b5090565b81548183558181111561218e5781836000526020600020918201910161218d9190612193565b5b505050565b6121b591905b808211156121b1576000816000905550600101612199565b5090565b905600a165627a7a72305820aecd5d96f4b779a9bf576b72c7a032926ab37a4928df51f41311fd6ca58d841c0029",
  "source": "pragma solidity ^0.4.24;\n\nimport \"openzeppelin-solidity/contracts/math/SafeMath.sol\";\nimport \"./ERC721Enumerable.sol\";\n\n\ncontract SpaceLand is ERC721Enumerable {\n  using SafeMath for uint256;\n\n  struct LandMeta {\n    uint256 rows;\n    uint256 columns;\n    uint256 height;\n    uint256 width;\n    uint256 price;\n  }\n\n  struct LandDetails {\n    string name;\n    string desc;\n  }\n\n  address public owner;\n  \n  LandMeta private _landMeta;\n  mapping (uint256 => LandDetails) private _landsDetails;\n\n  constructor(uint256 rows, uint256 columns, uint256 landHeight, uint256 landWidth, uint256 landPrice) public {\n    owner = msg.sender;\n    _landMeta = LandMeta(rows, columns, landHeight, landWidth, landPrice);\n  }\n\n  modifier validLandPrice(uint256 count) {\n    require(msg.value == _landMeta.price.mul(count), \"[msg.value not equal to expected lands price]\");\n    _;\n  }\n\n  modifier validLandId(uint256 landId) {\n    require(landId < (_landMeta.rows * _landMeta.columns), \"[landId greater than max avaiable index]\");\n    _;\n  }\n\n  function buy(uint256 landId) public payable validLandPrice(1) validLandId(landId) {\n    _mint(msg.sender, landId);\n  }\n\n  // function buyMany(uint256[] landIds) public payable validLandPrice validLandId(landId)\n\n  function setDetails(uint256 landId, string name, string desc) public returns (uint256) {\n    require(ownerOf(landId) == msg.sender, \"[landId is not owned by message sender]\");\n    \n    LandDetails storage details = _landsDetails[landId];\n    details.name = name;\n    details.desc = desc;\n\n    return 1;\n  }\n\n  function getDetails(uint256 landId) public view returns (uint256, string, string) {\n    LandDetails storage details = _landsDetails[landId];\n    return (landId, details.name, details.desc);\n  }\n\n  function allLands() public view returns (uint256[]) {\n    return _tokensAll();\n  }\n\n  function landsOf(address buyer) public view returns (uint256[]) {\n    require(buyer != address(0));\n    return _tokensOf(buyer);\n  }\n\n  function maxTotalSupply() public view returns (uint256) {\n    return _landMeta.rows * _landMeta.columns;\n  }\n}\n",
  "sourcePath": "/Users/jbogacz/Sandbox/spaceyeoman-solidity/contracts/SpaceLand.sol",
  "compiler": {
    "name": "solc",
    "version": "0.4.24+commit.e67f0147.Emscripten.clang"
  },
  "schemaVersion": "2.0.1",
  "updatedAt": "2018-10-31T05:46:45.153Z"
}